{
  "contractName": "DappTokenSales",
  "abi": [
    {
      "inputs": [
        {
          "internalType": "contract DappToken",
          "name": "_dappToken",
          "type": "address"
        },
        {
          "internalType": "uint256",
          "name": "_tokenPrice",
          "type": "uint256"
        }
      ],
      "payable": false,
      "stateMutability": "nonpayable",
      "type": "constructor"
    },
    {
      "anonymous": false,
      "inputs": [
        {
          "indexed": false,
          "internalType": "address",
          "name": "_customer",
          "type": "address"
        },
        {
          "indexed": false,
          "internalType": "uint256",
          "name": "_amount",
          "type": "uint256"
        }
      ],
      "name": "Sell",
      "type": "event"
    },
    {
      "constant": true,
      "inputs": [],
      "name": "dappToken",
      "outputs": [
        {
          "internalType": "contract DappToken",
          "name": "",
          "type": "address"
        }
      ],
      "payable": false,
      "stateMutability": "view",
      "type": "function"
    },
    {
      "constant": true,
      "inputs": [],
      "name": "tokenPrice",
      "outputs": [
        {
          "internalType": "uint256",
          "name": "",
          "type": "uint256"
        }
      ],
      "payable": false,
      "stateMutability": "view",
      "type": "function"
    },
    {
      "constant": true,
      "inputs": [],
      "name": "tokenSold",
      "outputs": [
        {
          "internalType": "uint256",
          "name": "",
          "type": "uint256"
        }
      ],
      "payable": false,
      "stateMutability": "view",
      "type": "function"
    },
    {
      "constant": false,
      "inputs": [
        {
          "internalType": "uint256",
          "name": "_numberOfTokens",
          "type": "uint256"
        }
      ],
      "name": "buyTokens",
      "outputs": [],
      "payable": true,
      "stateMutability": "payable",
      "type": "function"
    }
  ],
  "bytecode": "0x608060405234801561001057600080fd5b5060405161042e38038061042e8339818101604052604081101561003357600080fd5b81019080805190602001909291908051906020019092919050505081600160006101000a81548173ffffffffffffffffffffffffffffffffffffffff021916908373ffffffffffffffffffffffffffffffffffffffff16021790555080600281905550336000806101000a81548173ffffffffffffffffffffffffffffffffffffffff021916908373ffffffffffffffffffffffffffffffffffffffff1602179055505050610347806100e76000396000f3fe60806040526004361061003f5760003560e01c80633610724e14610044578063519ee19e146100725780635eb186f81461009d5780637ff9b596146100f4575b600080fd5b6100706004803603602081101561005a57600080fd5b810190808035906020019092919050505061011f565b005b34801561007e57600080fd5b506100876102b4565b6040518082815260200191505060405180910390f35b3480156100a957600080fd5b506100b26102ba565b604051808273ffffffffffffffffffffffffffffffffffffffff1673ffffffffffffffffffffffffffffffffffffffff16815260200191505060405180910390f35b34801561010057600080fd5b506101096102e0565b6040518082815260200191505060405180910390f35b61012b816002546102e6565b341461013657600080fd5b60004790508181101561014857600080fd5b600160009054906101000a900473ffffffffffffffffffffffffffffffffffffffff1673ffffffffffffffffffffffffffffffffffffffff1663a9059cbb33846040518363ffffffff1660e01b8152600401808373ffffffffffffffffffffffffffffffffffffffff1673ffffffffffffffffffffffffffffffffffffffff16815260200182815260200192505050602060405180830381600087803b1580156101f157600080fd5b505af1158015610205573d6000803e3d6000fd5b505050506040513d602081101561021b57600080fd5b810190808051906020019092919050505061023557600080fd5b816003600082825401925050819055507f5e5e995ce3133561afceaa51a9a154d5db228cd7525d34df5185582c18d3df093383604051808373ffffffffffffffffffffffffffffffffffffffff1673ffffffffffffffffffffffffffffffffffffffff1681526020018281526020019250505060405180910390a15050565b60035481565b600160009054906101000a900473ffffffffffffffffffffffffffffffffffffffff1681565b60025481565b600080821480610303575082828385029250828161030057fe5b04145b61030c57600080fd5b9291505056fea265627a7a7231582062fc2725885b76c771078148f3c5388bc78c118f7f1d61be597ceec51f5179ab64736f6c63430005100032",
  "source": "pragma solidity ^0.5.0; \nimport './DappToken.sol'; \n\ncontract DappTokenSales {\n\n    address admin;\n    DappToken public dappToken; \n    uint256 public tokenPrice; \n    uint256 public tokenSold; \n\n\n    event Sell(address _customer, uint256 _amount); \n\n\n    constructor (DappToken _dappToken, uint256 _tokenPrice) public {\n        dappToken = _dappToken; \n        tokenPrice = _tokenPrice;\n        admin = msg.sender;\n    }\n      function mul(uint x, uint y) internal pure returns (uint z) {\n        require(y == 0 || (z = x * y) / y == x);\n    }\n\n\n    function buyTokens(uint256 _numberOfTokens) public payable {\n        require(msg.value == mul(_numberOfTokens, tokenPrice));\n        uint256 balacne = address(this).balance; \n        require(balacne >= _numberOfTokens); \n        //require transfer is successful\n        require(dappToken.transfer(msg.sender, _numberOfTokens));\n\n\n        tokenSold += _numberOfTokens; \n        emit Sell(msg.sender, _numberOfTokens); \n    }\n\n\n\n}",
  "sourcePath": "/Users/fadezak100/Desktop/Token-Sale/src/contracts/DappTokenSales.sol",
  "compiler": {
    "name": "solc",
    "version": "0.5.16+commit.9c3226ce.Emscripten.clang"
  },
  "schemaVersion": "3.4.4",
  "updatedAt": "2022-05-05T05:57:07.731Z",
  "devdoc": {
    "methods": {}
  },
  "userdoc": {
    "methods": {}
  }
}